{
  "contractName": "DecentralizedResourceSharing",
  "abi": [
    {
      "anonymous": false,
      "inputs": [
        {
          "indexed": true,
          "internalType": "uint256",
          "name": "agreementId",
          "type": "uint256"
        },
        {
          "indexed": false,
          "internalType": "address",
          "name": "renter",
          "type": "address"
        },
        {
          "indexed": false,
          "internalType": "address",
          "name": "provider",
          "type": "address"
        },
        {
          "indexed": false,
          "internalType": "uint256",
          "name": "amount",
          "type": "uint256"
        }
      ],
      "name": "AgreementCreated",
      "type": "event"
    },
    {
      "anonymous": false,
      "inputs": [
        {
          "indexed": true,
          "internalType": "uint256",
          "name": "agreementId",
          "type": "uint256"
        },
        {
          "indexed": false,
          "internalType": "address",
          "name": "renter",
          "type": "address"
        },
        {
          "indexed": false,
          "internalType": "address",
          "name": "provider",
          "type": "address"
        },
        {
          "indexed": false,
          "internalType": "uint256",
          "name": "amount",
          "type": "uint256"
        }
      ],
      "name": "PaymentMade",
      "type": "event"
    },
    {
      "anonymous": false,
      "inputs": [
        {
          "indexed": true,
          "internalType": "address",
          "name": "provider",
          "type": "address"
        },
        {
          "indexed": false,
          "internalType": "uint256",
          "name": "pricePerMonth",
          "type": "uint256"
        }
      ],
      "name": "ProviderRegistered",
      "type": "event"
    },
    {
      "anonymous": false,
      "inputs": [
        {
          "indexed": true,
          "internalType": "uint256",
          "name": "agreementId",
          "type": "uint256"
        },
        {
          "indexed": false,
          "internalType": "address",
          "name": "renter",
          "type": "address"
        },
        {
          "indexed": false,
          "internalType": "address",
          "name": "provider",
          "type": "address"
        }
      ],
      "name": "TaskCompleted",
      "type": "event"
    },
    {
      "inputs": [],
      "name": "agreementCount",
      "outputs": [
        {
          "internalType": "uint256",
          "name": "",
          "type": "uint256"
        }
      ],
      "stateMutability": "view",
      "type": "function",
      "constant": true
    },
    {
      "inputs": [
        {
          "internalType": "uint256",
          "name": "",
          "type": "uint256"
        }
      ],
      "name": "agreements",
      "outputs": [
        {
          "internalType": "address",
          "name": "renter",
          "type": "address"
        },
        {
          "internalType": "address",
          "name": "provider",
          "type": "address"
        },
        {
          "internalType": "uint256",
          "name": "startTime",
          "type": "uint256"
        },
        {
          "internalType": "uint256",
          "name": "endTime",
          "type": "uint256"
        },
        {
          "internalType": "bool",
          "name": "isCompleted",
          "type": "bool"
        },
        {
          "internalType": "uint256",
          "name": "amount",
          "type": "uint256"
        },
        {
          "internalType": "enum DecentralizedResourceSharing.AgreementStatus",
          "name": "status",
          "type": "uint8"
        }
      ],
      "stateMutability": "view",
      "type": "function",
      "constant": true
    },
    {
      "inputs": [
        {
          "internalType": "address",
          "name": "",
          "type": "address"
        }
      ],
      "name": "balances",
      "outputs": [
        {
          "internalType": "uint256",
          "name": "",
          "type": "uint256"
        }
      ],
      "stateMutability": "view",
      "type": "function",
      "constant": true
    },
    {
      "inputs": [
        {
          "internalType": "address",
          "name": "",
          "type": "address"
        }
      ],
      "name": "providers",
      "outputs": [
        {
          "internalType": "address",
          "name": "providerAddress",
          "type": "address"
        },
        {
          "internalType": "uint256",
          "name": "pricePerMonth",
          "type": "uint256"
        },
        {
          "internalType": "bool",
          "name": "isRegistered",
          "type": "bool"
        }
      ],
      "stateMutability": "view",
      "type": "function",
      "constant": true
    },
    {
      "inputs": [
        {
          "internalType": "uint256",
          "name": "_pricePerMonth",
          "type": "uint256"
        }
      ],
      "name": "registerProvider",
      "outputs": [],
      "stateMutability": "nonpayable",
      "type": "function"
    },
    {
      "inputs": [
        {
          "internalType": "address",
          "name": "_provider",
          "type": "address"
        },
        {
          "internalType": "uint256",
          "name": "_durationMonths",
          "type": "uint256"
        }
      ],
      "name": "createAgreement",
      "outputs": [],
      "stateMutability": "payable",
      "type": "function",
      "payable": true
    },
    {
      "inputs": [
        {
          "internalType": "uint256",
          "name": "_agreementId",
          "type": "uint256"
        }
      ],
      "name": "completeTask",
      "outputs": [],
      "stateMutability": "nonpayable",
      "type": "function"
    },
    {
      "inputs": [
        {
          "internalType": "uint256",
          "name": "_agreementId",
          "type": "uint256"
        }
      ],
      "name": "confirmCompletion",
      "outputs": [],
      "stateMutability": "nonpayable",
      "type": "function"
    },
    {
      "inputs": [],
      "name": "withdrawFunds",
      "outputs": [],
      "stateMutability": "nonpayable",
      "type": "function"
    },
    {
      "inputs": [
        {
          "internalType": "uint256",
          "name": "_agreementId",
          "type": "uint256"
        }
      ],
      "name": "getAgreement",
      "outputs": [
        {
          "internalType": "address",
          "name": "renter",
          "type": "address"
        },
        {
          "internalType": "address",
          "name": "provider",
          "type": "address"
        },
        {
          "internalType": "uint256",
          "name": "startTime",
          "type": "uint256"
        },
        {
          "internalType": "uint256",
          "name": "endTime",
          "type": "uint256"
        },
        {
          "internalType": "bool",
          "name": "isCompleted",
          "type": "bool"
        },
        {
          "internalType": "uint256",
          "name": "amount",
          "type": "uint256"
        },
        {
          "internalType": "enum DecentralizedResourceSharing.AgreementStatus",
          "name": "status",
          "type": "uint8"
        }
      ],
      "stateMutability": "view",
      "type": "function",
      "constant": true
    },
    {
      "inputs": [],
      "name": "getAllAgreements",
      "outputs": [
        {
          "components": [
            {
              "internalType": "address",
              "name": "renter",
              "type": "address"
            },
            {
              "internalType": "address",
              "name": "provider",
              "type": "address"
            },
            {
              "internalType": "uint256",
              "name": "startTime",
              "type": "uint256"
            },
            {
              "internalType": "uint256",
              "name": "endTime",
              "type": "uint256"
            },
            {
              "internalType": "bool",
              "name": "isCompleted",
              "type": "bool"
            },
            {
              "internalType": "uint256",
              "name": "amount",
              "type": "uint256"
            },
            {
              "internalType": "enum DecentralizedResourceSharing.AgreementStatus",
              "name": "status",
              "type": "uint8"
            }
          ],
          "internalType": "struct DecentralizedResourceSharing.RentalAgreement[]",
          "name": "",
          "type": "tuple[]"
        }
      ],
      "stateMutability": "view",
      "type": "function",
      "constant": true
    }
  ],
  "bytecode": "0x608060405234801561001057600080fd5b50611c5f806100206000396000f3fe60806040526004361061009c5760003560e01c80634f9f6fe6116100645780634f9f6fe61461017b57806394aeb613146101be578063bb7bb278146101e7578063bd14de9614610212578063ceae67e214610255578063e1e295581461027e5761009c565b80630787bc27146100a157806324600fc3146100e057806327e235e3146100f757806333a82a9b146101345780634e6873c714610150575b600080fd5b3480156100ad57600080fd5b506100c860048036038101906100c39190611260565b6102a7565b6040516100d793929190611811565b60405180910390f35b3480156100ec57600080fd5b506100f56102fe565b005b34801561010357600080fd5b5061011e60048036038101906101199190611260565b610414565b60405161012b919061198a565b60405180910390f35b61014e60048036038101906101499190611289565b61042c565b005b34801561015c57600080fd5b50610165610760565b6040516101729190611848565b60405180910390f35b34801561018757600080fd5b506101a2600480360381019061019d91906112c5565b6109e7565b6040516101b597969594939291906117a2565b60405180910390f35b3480156101ca57600080fd5b506101e560048036038101906101e091906112c5565b610a9f565b005b3480156101f357600080fd5b506101fc610cf1565b604051610209919061198a565b60405180910390f35b34801561021e57600080fd5b50610239600480360381019061023491906112c5565b610cf7565b60405161024c97969594939291906117a2565b60405180910390f35b34801561026157600080fd5b5061027c600480360381019061027791906112c5565b610d93565b005b34801561028a57600080fd5b506102a560048036038101906102a091906112c5565b610f0d565b005b60006020528060005260406000206000915090508060000160009054906101000a900473ffffffffffffffffffffffffffffffffffffffff16908060010154908060020160009054906101000a900460ff16905083565b6000600260003373ffffffffffffffffffffffffffffffffffffffff1673ffffffffffffffffffffffffffffffffffffffff16815260200190815260200160002054905060008111610385576040517f08c379a000000000000000000000000000000000000000000000000000000000815260040161037c906118ca565b60405180910390fd5b6000600260003373ffffffffffffffffffffffffffffffffffffffff1673ffffffffffffffffffffffffffffffffffffffff168152602001908152602001600020819055503373ffffffffffffffffffffffffffffffffffffffff166108fc829081150290604051600060405180830381858888f19350505050158015610410573d6000803e3d6000fd5b5050565b60026020528060005260406000206000915090505481565b60008060008473ffffffffffffffffffffffffffffffffffffffff1673ffffffffffffffffffffffffffffffffffffffff16815260200190815260200160002090508060020160009054906101000a900460ff166104bf576040517f08c379a00000000000000000000000000000000000000000000000000000000081526004016104b6906118aa565b60405180910390fd5b60008282600101546104d19190611a45565b905080341015610516576040517f08c379a000000000000000000000000000000000000000000000000000000000815260040161050d9061192a565b60405180910390fd5b6003600081548092919061052990611b40565b91905055506040518060e001604052803373ffffffffffffffffffffffffffffffffffffffff1681526020018573ffffffffffffffffffffffffffffffffffffffff16815260200142815260200162278d00856105869190611a45565b4261059191906119ef565b8152602001600015158152602001348152602001600060018111156105df577f4e487b7100000000000000000000000000000000000000000000000000000000600052602160045260246000fd5b81525060016000600354815260200190815260200160002060008201518160000160006101000a81548173ffffffffffffffffffffffffffffffffffffffff021916908373ffffffffffffffffffffffffffffffffffffffff16021790555060208201518160010160006101000a81548173ffffffffffffffffffffffffffffffffffffffff021916908373ffffffffffffffffffffffffffffffffffffffff160217905550604082015181600201556060820151816003015560808201518160040160006101000a81548160ff02191690831515021790555060a0820151816005015560c08201518160060160006101000a81548160ff02191690836001811115610714577f4e487b7100000000000000000000000000000000000000000000000000000000600052602160045260246000fd5b02179055509050506003547fa3019c2118d1f0fbc2b78ed5c045ac5b0d67e76749d5dca1d62037c1f15e4b163386346040516107529392919061176b565b60405180910390a250505050565b6060600060035467ffffffffffffffff8111156107a6577f4e487b7100000000000000000000000000000000000000000000000000000000600052604160045260246000fd5b6040519080825280602002602001820160405280156107df57816020015b6107cc611193565b8152602001906001900390816107c45790505b5090506000600190505b60035481116109df57600160008281526020019081526020016000206040518060e00160405290816000820160009054906101000a900473ffffffffffffffffffffffffffffffffffffffff1673ffffffffffffffffffffffffffffffffffffffff1673ffffffffffffffffffffffffffffffffffffffff1681526020016001820160009054906101000a900473ffffffffffffffffffffffffffffffffffffffff1673ffffffffffffffffffffffffffffffffffffffff1673ffffffffffffffffffffffffffffffffffffffff16815260200160028201548152602001600382015481526020016004820160009054906101000a900460ff16151515158152602001600582015481526020016006820160009054906101000a900460ff166001811115610940577f4e487b7100000000000000000000000000000000000000000000000000000000600052602160045260246000fd5b6001811115610978577f4e487b7100000000000000000000000000000000000000000000000000000000600052602160045260246000fd5b815250508260018361098a9190611a9f565b815181106109c1577f4e487b7100000000000000000000000000000000000000000000000000000000600052603260045260246000fd5b602002602001018190525080806109d790611b40565b9150506107e9565b508091505090565b600080600080600080600080600160008a815260200190815260200160002090508060000160009054906101000a900473ffffffffffffffffffffffffffffffffffffffff168160010160009054906101000a900473ffffffffffffffffffffffffffffffffffffffff16826002015483600301548460040160009054906101000a900460ff1685600501548660060160009054906101000a900460ff16975097509750975097509750975050919395979092949650565b60006001600083815260200190815260200160002090503373ffffffffffffffffffffffffffffffffffffffff168160000160009054906101000a900473ffffffffffffffffffffffffffffffffffffffff1673ffffffffffffffffffffffffffffffffffffffff1614610b48576040517f08c379a0000000000000000000000000000000000000000000000000000000008152600401610b3f9061194a565b60405180910390fd5b600180811115610b81577f4e487b7100000000000000000000000000000000000000000000000000000000600052602160045260246000fd5b8160060160009054906101000a900460ff166001811115610bcb577f4e487b7100000000000000000000000000000000000000000000000000000000600052602160045260246000fd5b14610c0b576040517f08c379a0000000000000000000000000000000000000000000000000000000008152600401610c029061190a565b60405180910390fd5b8060050154600260008360010160009054906101000a900473ffffffffffffffffffffffffffffffffffffffff1673ffffffffffffffffffffffffffffffffffffffff1673ffffffffffffffffffffffffffffffffffffffff1681526020019081526020016000206000828254610c8291906119ef565b92505081905550817fd51bb0381ff8d9476c9493a30eafdb1966dca4b0c0db1a2d4e244a3a8b16ffb8338360010160009054906101000a900473ffffffffffffffffffffffffffffffffffffffff168460050154604051610ce59392919061176b565b60405180910390a25050565b60035481565b60016020528060005260406000206000915090508060000160009054906101000a900473ffffffffffffffffffffffffffffffffffffffff16908060010160009054906101000a900473ffffffffffffffffffffffffffffffffffffffff16908060020154908060030154908060040160009054906101000a900460ff16908060050154908060060160009054906101000a900460ff16905087565b60008111610dd6576040517f08c379a0000000000000000000000000000000000000000000000000000000008152600401610dcd9061186a565b60405180910390fd5b60405180606001604052803373ffffffffffffffffffffffffffffffffffffffff168152602001828152602001600115158152506000803373ffffffffffffffffffffffffffffffffffffffff1673ffffffffffffffffffffffffffffffffffffffff16815260200190815260200160002060008201518160000160006101000a81548173ffffffffffffffffffffffffffffffffffffffff021916908373ffffffffffffffffffffffffffffffffffffffff1602179055506020820151816001015560408201518160020160006101000a81548160ff0219169083151502179055509050503373ffffffffffffffffffffffffffffffffffffffff167f90c9734131c1e4fb36cde2d71e6feb93fb258f71be8a85411c173d25e1516e8082604051610f02919061198a565b60405180910390a250565b60006001600083815260200190815260200160002090503373ffffffffffffffffffffffffffffffffffffffff168160010160009054906101000a900473ffffffffffffffffffffffffffffffffffffffff1673ffffffffffffffffffffffffffffffffffffffff1614610fb6576040517f08c379a0000000000000000000000000000000000000000000000000000000008152600401610fad9061188a565b60405180910390fd5b60006001811115610ff0577f4e487b7100000000000000000000000000000000000000000000000000000000600052602160045260246000fd5b8160060160009054906101000a900460ff16600181111561103a577f4e487b7100000000000000000000000000000000000000000000000000000000600052602160045260246000fd5b1461107a576040517f08c379a0000000000000000000000000000000000000000000000000000000008152600401611071906118ea565b60405180910390fd5b80600301544210156110c1576040517f08c379a00000000000000000000000000000000000000000000000000000000081526004016110b89061196a565b60405180910390fd5b60018160040160006101000a81548160ff02191690831515021790555060018160060160006101000a81548160ff0219169083600181111561112c577f4e487b7100000000000000000000000000000000000000000000000000000000600052602160045260246000fd5b0217905550817f71df29d45998a549c1f24c01fb77e4eb23d0655460af8d435c59de2d8f572d968260000160009054906101000a900473ffffffffffffffffffffffffffffffffffffffff1633604051611187929190611742565b60405180910390a25050565b6040518060e00160405280600073ffffffffffffffffffffffffffffffffffffffff168152602001600073ffffffffffffffffffffffffffffffffffffffff16815260200160008152602001600081526020016000151581526020016000815260200160006001811115611230577f4e487b7100000000000000000000000000000000000000000000000000000000600052602160045260246000fd5b81525090565b60008135905061124581611bfb565b92915050565b60008135905061125a81611c12565b92915050565b60006020828403121561127257600080fd5b600061128084828501611236565b91505092915050565b6000806040838503121561129c57600080fd5b60006112aa85828601611236565b92505060206112bb8582860161124b565b9150509250929050565b6000602082840312156112d757600080fd5b60006112e58482850161124b565b91505092915050565b60006112fa8383611696565b60e08301905092915050565b61130f81611ad3565b82525050565b61131e81611ad3565b82525050565b600061132f826119b5565b61133981856119cd565b9350611344836119a5565b8060005b8381101561137557815161135c88826112ee565b9750611367836119c0565b925050600181019050611348565b5085935050505092915050565b61138b81611ae5565b82525050565b61139a81611ae5565b82525050565b6113a981611b2e565b82525050565b6113b881611b2e565b82525050565b60006113cb601f836119de565b91507f5072696365206d7573742062652067726561746572207468616e207a65726f006000830152602082019050919050565b600061140b6023836119de565b91507f4f6e6c792070726f76696465722063616e20636f6d706c65746520746865207460008301527f61736b00000000000000000000000000000000000000000000000000000000006020830152604082019050919050565b6000611471601a836119de565b91507f50726f7669646572206973206e6f7420726567697374657265640000000000006000830152602082019050919050565b60006114b16014836119de565b91507f4e6f2066756e647320746f2077697468647261770000000000000000000000006000830152602082019050919050565b60006114f16017836119de565b91507f41677265656d656e74206973206e6f74206163746976650000000000000000006000830152602082019050919050565b60006115316022836119de565b91507f5461736b206e6f742079657420636f6d706c657465642062792070726f76696460008301527f65720000000000000000000000000000000000000000000000000000000000006020830152604082019050919050565b6000611597602c836119de565b91507f496e73756666696369656e74207061796d656e7420666f72207468652072656e60008301527f74616c206475726174696f6e00000000000000000000000000000000000000006020830152604082019050919050565b60006115fd6022836119de565b91507f4f6e6c792072656e7465722063616e20636f6e6669726d20636f6d706c65746960008301527f6f6e0000000000000000000000000000000000000000000000000000000000006020830152604082019050919050565b6000611663601f836119de565b91507f52656e74616c20706572696f6420686173206e6f7420656e64656420796574006000830152602082019050919050565b60e0820160008201516116ac6000850182611306565b5060208201516116bf6020850182611306565b5060408201516116d26040850182611724565b5060608201516116e56060850182611724565b5060808201516116f86080850182611382565b5060a082015161170b60a0850182611724565b5060c082015161171e60c08501826113a0565b50505050565b61172d81611b24565b82525050565b61173c81611b24565b82525050565b60006040820190506117576000830185611315565b6117646020830184611315565b9392505050565b60006060820190506117806000830186611315565b61178d6020830185611315565b61179a6040830184611733565b949350505050565b600060e0820190506117b7600083018a611315565b6117c46020830189611315565b6117d16040830188611733565b6117de6060830187611733565b6117eb6080830186611391565b6117f860a0830185611733565b61180560c08301846113af565b98975050505050505050565b60006060820190506118266000830186611315565b6118336020830185611733565b6118406040830184611391565b949350505050565b600060208201905081810360008301526118628184611324565b905092915050565b60006020820190508181036000830152611883816113be565b9050919050565b600060208201905081810360008301526118a3816113fe565b9050919050565b600060208201905081810360008301526118c381611464565b9050919050565b600060208201905081810360008301526118e3816114a4565b9050919050565b60006020820190508181036000830152611903816114e4565b9050919050565b6000602082019050818103600083015261192381611524565b9050919050565b600060208201905081810360008301526119438161158a565b9050919050565b60006020820190508181036000830152611963816115f0565b9050919050565b6000602082019050818103600083015261198381611656565b9050919050565b600060208201905061199f6000830184611733565b92915050565b6000819050602082019050919050565b600081519050919050565b6000602082019050919050565b600082825260208201905092915050565b600082825260208201905092915050565b60006119fa82611b24565b9150611a0583611b24565b9250827fffffffffffffffffffffffffffffffffffffffffffffffffffffffffffffffff03821115611a3a57611a39611b89565b5b828201905092915050565b6000611a5082611b24565b9150611a5b83611b24565b9250817fffffffffffffffffffffffffffffffffffffffffffffffffffffffffffffffff0483118215151615611a9457611a93611b89565b5b828202905092915050565b6000611aaa82611b24565b9150611ab583611b24565b925082821015611ac857611ac7611b89565b5b828203905092915050565b6000611ade82611b04565b9050919050565b60008115159050919050565b6000819050611aff82611be7565b919050565b600073ffffffffffffffffffffffffffffffffffffffff82169050919050565b6000819050919050565b6000611b3982611af1565b9050919050565b6000611b4b82611b24565b91507fffffffffffffffffffffffffffffffffffffffffffffffffffffffffffffffff821415611b7e57611b7d611b89565b5b600182019050919050565b7f4e487b7100000000000000000000000000000000000000000000000000000000600052601160045260246000fd5b7f4e487b7100000000000000000000000000000000000000000000000000000000600052602160045260246000fd5b60028110611bf857611bf7611bb8565b5b50565b611c0481611ad3565b8114611c0f57600080fd5b50565b611c1b81611b24565b8114611c2657600080fd5b5056fea264697066735822122055a3fea6fbd4504d52b9d9148ba030fabcb816d21d1467c0254a0cc3d60bfd6a64736f6c63430008000033",
  "immutableReferences": {},
  "source": "// SPDX-License-Identifier: MIT\r\npragma solidity ^0.8.0;\r\n\r\ncontract DecentralizedResourceSharing {\r\n\r\n    struct Provider {\r\n        address providerAddress;\r\n        uint256 pricePerMonth;\r\n        bool isRegistered;\r\n    }\r\n\r\n    enum AgreementStatus { Active, Completed }\r\n\r\n    struct RentalAgreement {\r\n        address renter;\r\n        address provider;\r\n        uint256 startTime;\r\n        uint256 endTime;\r\n        bool isCompleted;\r\n        uint256 amount;\r\n        AgreementStatus status;\r\n    }\r\n\r\n    mapping(address => Provider) public providers;\r\n    mapping(uint256 => RentalAgreement) public agreements;\r\n    mapping(address => uint256) public balances;\r\n\r\n    uint256 public agreementCount;\r\n\r\n    event ProviderRegistered(address indexed provider, uint256 pricePerMonth);\r\n    event AgreementCreated(uint256 indexed agreementId, address renter, address provider, uint256 amount);\r\n    event TaskCompleted(uint256 indexed agreementId, address renter, address provider);\r\n    event PaymentMade(uint256 indexed agreementId, address renter, address provider, uint256 amount);\r\n\r\n    function registerProvider(uint256 _pricePerMonth) external {\r\n        require(_pricePerMonth > 0, \"Price must be greater than zero\");\r\n\r\n        providers[msg.sender] = Provider({\r\n            providerAddress: msg.sender,\r\n            pricePerMonth: _pricePerMonth,\r\n            isRegistered: true\r\n        });\r\n\r\n        emit ProviderRegistered(msg.sender, _pricePerMonth);\r\n    }\r\n\r\n    function createAgreement(address _provider, uint256 _durationMonths) external payable {\r\n        Provider storage provider = providers[_provider];\r\n        require(provider.isRegistered, \"Provider is not registered\");\r\n\r\n        uint256 totalAmount = provider.pricePerMonth * _durationMonths;\r\n        require(msg.value >= totalAmount, \"Insufficient payment for the rental duration\");\r\n\r\n        agreementCount++;\r\n        agreements[agreementCount] = RentalAgreement({\r\n            renter: msg.sender,\r\n            provider: _provider,\r\n            startTime: block.timestamp,\r\n            endTime: block.timestamp + (_durationMonths * 30 days),\r\n            isCompleted: false,\r\n            amount: msg.value,\r\n            status: AgreementStatus.Active // Automatically set to active\r\n        });\r\n\r\n        emit AgreementCreated(agreementCount, msg.sender, _provider, msg.value);\r\n    }\r\n\r\n    function completeTask(uint256 _agreementId) external {\r\n        RentalAgreement storage agreement = agreements[_agreementId];\r\n\r\n        require(agreement.provider == msg.sender, \"Only provider can complete the task\");\r\n        require(agreement.status == AgreementStatus.Active, \"Agreement is not active\");\r\n        require(block.timestamp >= agreement.endTime, \"Rental period has not ended yet\");\r\n\r\n        agreement.isCompleted = true;\r\n        agreement.status = AgreementStatus.Completed;\r\n\r\n        emit TaskCompleted(_agreementId, agreement.renter, msg.sender);\r\n    }\r\n\r\n    function confirmCompletion(uint256 _agreementId) external {\r\n        RentalAgreement storage agreement = agreements[_agreementId];\r\n        require(agreement.renter == msg.sender, \"Only renter can confirm completion\");\r\n        require(agreement.status == AgreementStatus.Completed, \"Task not yet completed by provider\");\r\n\r\n        // Transfer payment to provider\r\n        balances[agreement.provider] += agreement.amount;\r\n        emit PaymentMade(_agreementId, msg.sender, agreement.provider, agreement.amount);\r\n    }\r\n\r\n    function withdrawFunds() external {\r\n        uint256 amount = balances[msg.sender];\r\n        require(amount > 0, \"No funds to withdraw\");\r\n\r\n        balances[msg.sender] = 0;\r\n        payable(msg.sender).transfer(amount);\r\n    }\r\n\r\n    function getAgreement(uint256 _agreementId) external view returns (\r\n        address renter,\r\n        address provider,\r\n        uint256 startTime,\r\n        uint256 endTime,\r\n        bool isCompleted,\r\n        uint256 amount,\r\n        AgreementStatus status\r\n    ) {\r\n        RentalAgreement storage agreement = agreements[_agreementId];\r\n        return (\r\n            agreement.renter,\r\n            agreement.provider,\r\n            agreement.startTime,\r\n            agreement.endTime,\r\n            agreement.isCompleted,\r\n            agreement.amount,\r\n            agreement.status\r\n        );\r\n    }\r\n\r\n    function getAllAgreements() external view returns (RentalAgreement[] memory) {\r\n        RentalAgreement[] memory allAgreements = new RentalAgreement[](agreementCount);\r\n        for (uint256 i = 1; i <= agreementCount; i++) {\r\n            allAgreements[i - 1] = agreements[i];\r\n        }\r\n        return allAgreements;\r\n    }\r\n}\r\n",
  "sourcePath": "D:\\Files\\AITY-Blockchain_Technologies-Final_Project\\server\\blockchain\\contracts\\DecentralizedResourceSharing.sol",
  "compiler": {
    "name": "solc",
    "version": "0.8.0+commit.c7dfd78e.Emscripten.clang"
  },
  "schemaVersion": "3.4.16",
  "updatedAt": "2024-11-08T07:21:25.626Z",
  "networkType": "ethereum",
  "devdoc": {
    "kind": "dev",
    "methods": {},
    "version": 1
  },
  "userdoc": {
    "kind": "user",
    "methods": {},
    "version": 1
  }
}