{
  "contractName": "DecentralizedResourceSharing",
  "abi": [
    {
      "anonymous": false,
      "inputs": [
        {
          "indexed": true,
          "internalType": "uint256",
          "name": "agreementId",
          "type": "uint256"
        },
        {
          "indexed": false,
          "internalType": "address",
          "name": "provider",
          "type": "address"
        }
      ],
      "name": "AgreementAccepted",
      "type": "event"
    },
    {
      "anonymous": false,
      "inputs": [
        {
          "indexed": true,
          "internalType": "uint256",
          "name": "agreementId",
          "type": "uint256"
        },
        {
          "indexed": false,
          "internalType": "address",
          "name": "renter",
          "type": "address"
        },
        {
          "indexed": false,
          "internalType": "address",
          "name": "provider",
          "type": "address"
        },
        {
          "indexed": false,
          "internalType": "uint256",
          "name": "amount",
          "type": "uint256"
        }
      ],
      "name": "AgreementCreated",
      "type": "event"
    },
    {
      "anonymous": false,
      "inputs": [
        {
          "indexed": true,
          "internalType": "uint256",
          "name": "agreementId",
          "type": "uint256"
        },
        {
          "indexed": false,
          "internalType": "address",
          "name": "provider",
          "type": "address"
        },
        {
          "indexed": false,
          "internalType": "string",
          "name": "reason",
          "type": "string"
        }
      ],
      "name": "AgreementRejected",
      "type": "event"
    },
    {
      "anonymous": false,
      "inputs": [
        {
          "indexed": true,
          "internalType": "uint256",
          "name": "agreementId",
          "type": "uint256"
        },
        {
          "indexed": false,
          "internalType": "address",
          "name": "renter",
          "type": "address"
        },
        {
          "indexed": false,
          "internalType": "address",
          "name": "provider",
          "type": "address"
        },
        {
          "indexed": false,
          "internalType": "uint256",
          "name": "amount",
          "type": "uint256"
        }
      ],
      "name": "PaymentMade",
      "type": "event"
    },
    {
      "anonymous": false,
      "inputs": [
        {
          "indexed": true,
          "internalType": "address",
          "name": "provider",
          "type": "address"
        },
        {
          "indexed": false,
          "internalType": "uint256",
          "name": "pricePerMonth",
          "type": "uint256"
        }
      ],
      "name": "ProviderRegistered",
      "type": "event"
    },
    {
      "anonymous": false,
      "inputs": [
        {
          "indexed": true,
          "internalType": "uint256",
          "name": "agreementId",
          "type": "uint256"
        },
        {
          "indexed": false,
          "internalType": "address",
          "name": "renter",
          "type": "address"
        },
        {
          "indexed": false,
          "internalType": "address",
          "name": "provider",
          "type": "address"
        }
      ],
      "name": "TaskCompleted",
      "type": "event"
    },
    {
      "inputs": [],
      "name": "agreementCount",
      "outputs": [
        {
          "internalType": "uint256",
          "name": "",
          "type": "uint256"
        }
      ],
      "stateMutability": "view",
      "type": "function",
      "constant": true
    },
    {
      "inputs": [
        {
          "internalType": "uint256",
          "name": "",
          "type": "uint256"
        }
      ],
      "name": "agreements",
      "outputs": [
        {
          "internalType": "address",
          "name": "renter",
          "type": "address"
        },
        {
          "internalType": "address",
          "name": "provider",
          "type": "address"
        },
        {
          "internalType": "uint256",
          "name": "startTime",
          "type": "uint256"
        },
        {
          "internalType": "uint256",
          "name": "endTime",
          "type": "uint256"
        },
        {
          "internalType": "bool",
          "name": "isCompleted",
          "type": "bool"
        },
        {
          "internalType": "uint256",
          "name": "amount",
          "type": "uint256"
        },
        {
          "internalType": "enum DecentralizedResourceSharing.AgreementStatus",
          "name": "status",
          "type": "uint8"
        }
      ],
      "stateMutability": "view",
      "type": "function",
      "constant": true
    },
    {
      "inputs": [
        {
          "internalType": "address",
          "name": "",
          "type": "address"
        }
      ],
      "name": "balances",
      "outputs": [
        {
          "internalType": "uint256",
          "name": "",
          "type": "uint256"
        }
      ],
      "stateMutability": "view",
      "type": "function",
      "constant": true
    },
    {
      "inputs": [
        {
          "internalType": "address",
          "name": "",
          "type": "address"
        }
      ],
      "name": "providers",
      "outputs": [
        {
          "internalType": "address",
          "name": "providerAddress",
          "type": "address"
        },
        {
          "internalType": "uint256",
          "name": "pricePerMonth",
          "type": "uint256"
        },
        {
          "internalType": "bool",
          "name": "isRegistered",
          "type": "bool"
        }
      ],
      "stateMutability": "view",
      "type": "function",
      "constant": true
    },
    {
      "inputs": [
        {
          "internalType": "uint256",
          "name": "_pricePerMonth",
          "type": "uint256"
        }
      ],
      "name": "registerProvider",
      "outputs": [],
      "stateMutability": "nonpayable",
      "type": "function"
    },
    {
      "inputs": [
        {
          "internalType": "address",
          "name": "_provider",
          "type": "address"
        },
        {
          "internalType": "uint256",
          "name": "_durationMonths",
          "type": "uint256"
        }
      ],
      "name": "createAgreement",
      "outputs": [],
      "stateMutability": "payable",
      "type": "function",
      "payable": true
    },
    {
      "inputs": [
        {
          "internalType": "uint256",
          "name": "_agreementId",
          "type": "uint256"
        }
      ],
      "name": "acceptAgreement",
      "outputs": [],
      "stateMutability": "nonpayable",
      "type": "function"
    },
    {
      "inputs": [
        {
          "internalType": "uint256",
          "name": "_agreementId",
          "type": "uint256"
        },
        {
          "internalType": "string",
          "name": "reason",
          "type": "string"
        }
      ],
      "name": "rejectAgreement",
      "outputs": [],
      "stateMutability": "nonpayable",
      "type": "function"
    },
    {
      "inputs": [
        {
          "internalType": "uint256",
          "name": "_agreementId",
          "type": "uint256"
        }
      ],
      "name": "completeTask",
      "outputs": [],
      "stateMutability": "nonpayable",
      "type": "function"
    },
    {
      "inputs": [
        {
          "internalType": "uint256",
          "name": "_agreementId",
          "type": "uint256"
        }
      ],
      "name": "confirmCompletion",
      "outputs": [],
      "stateMutability": "nonpayable",
      "type": "function"
    },
    {
      "inputs": [],
      "name": "withdrawFunds",
      "outputs": [],
      "stateMutability": "nonpayable",
      "type": "function"
    }
  ],
  "bytecode": "0x608060405234801561001057600080fd5b50611da8806100206000396000f3fe60806040526004361061009c5760003560e01c806394aeb6131161006457806394aeb61314610179578063bb7bb278146101a2578063bd14de96146101cd578063c2fc24ac14610210578063ceae67e214610239578063e1e29558146102625761009c565b80630787bc27146100a157806324600fc3146100e057806327e235e3146100f757806333a82a9b146101345780633ae776d214610150575b600080fd5b3480156100ad57600080fd5b506100c860048036038101906100c3919061131a565b61028b565b6040516100d793929190611969565b60405180910390f35b3480156100ec57600080fd5b506100f56102e2565b005b34801561010357600080fd5b5061011e6004803603810190610119919061131a565b6103f8565b60405161012b9190611b20565b60405180910390f35b61014e60048036038101906101499190611343565b610410565b005b34801561015c57600080fd5b506101776004803603810190610172919061137f565b610744565b005b34801561018557600080fd5b506101a0600480360381019061019b919061137f565b610940565b005b3480156101ae57600080fd5b506101b7610b93565b6040516101c49190611b20565b60405180910390f35b3480156101d957600080fd5b506101f460048036038101906101ef919061137f565b610b99565b60405161020797969594939291906118c8565b60405180910390f35b34801561021c57600080fd5b50610237600480360381019061023291906113a8565b610c35565b005b34801561024557600080fd5b50610260600480360381019061025b919061137f565b610ea6565b005b34801561026e57600080fd5b506102896004803603810190610284919061137f565b611020565b005b60006020528060005260406000206000915090508060000160009054906101000a900473ffffffffffffffffffffffffffffffffffffffff16908060010154908060020160009054906101000a900460ff16905083565b6000600260003373ffffffffffffffffffffffffffffffffffffffff1673ffffffffffffffffffffffffffffffffffffffff16815260200190815260200160002054905060008111610369576040517f08c379a000000000000000000000000000000000000000000000000000000000815260040161036090611a40565b60405180910390fd5b6000600260003373ffffffffffffffffffffffffffffffffffffffff1673ffffffffffffffffffffffffffffffffffffffff168152602001908152602001600020819055503373ffffffffffffffffffffffffffffffffffffffff166108fc829081150290604051600060405180830381858888f193505050501580156103f4573d6000803e3d6000fd5b5050565b60026020528060005260406000206000915090505481565b60008060008473ffffffffffffffffffffffffffffffffffffffff1673ffffffffffffffffffffffffffffffffffffffff16815260200190815260200160002090508060020160009054906101000a900460ff166104a3576040517f08c379a000000000000000000000000000000000000000000000000000000000815260040161049a90611a20565b60405180910390fd5b60008282600101546104b59190611ba2565b9050803410156104fa576040517f08c379a00000000000000000000000000000000000000000000000000000000081526004016104f190611ac0565b60405180910390fd5b6003600081548092919061050d90611c78565b91905055506040518060e001604052803373ffffffffffffffffffffffffffffffffffffffff1681526020018573ffffffffffffffffffffffffffffffffffffffff16815260200142815260200162278d008561056a9190611ba2565b426105759190611b4c565b8152602001600015158152602001348152602001600060038111156105c3577f4e487b7100000000000000000000000000000000000000000000000000000000600052602160045260246000fd5b81525060016000600354815260200190815260200160002060008201518160000160006101000a81548173ffffffffffffffffffffffffffffffffffffffff021916908373ffffffffffffffffffffffffffffffffffffffff16021790555060208201518160010160006101000a81548173ffffffffffffffffffffffffffffffffffffffff021916908373ffffffffffffffffffffffffffffffffffffffff160217905550604082015181600201556060820151816003015560808201518160040160006101000a81548160ff02191690831515021790555060a0820151816005015560c08201518160060160006101000a81548160ff021916908360038111156106f8577f4e487b7100000000000000000000000000000000000000000000000000000000600052602160045260246000fd5b02179055509050506003547fa3019c2118d1f0fbc2b78ed5c045ac5b0d67e76749d5dca1d62037c1f15e4b1633863460405161073693929190611891565b60405180910390a250505050565b60006001600083815260200190815260200160002090503373ffffffffffffffffffffffffffffffffffffffff168160010160009054906101000a900473ffffffffffffffffffffffffffffffffffffffff1673ffffffffffffffffffffffffffffffffffffffff16146107ed576040517f08c379a00000000000000000000000000000000000000000000000000000000081526004016107e4906119a0565b60405180910390fd5b60006003811115610827577f4e487b7100000000000000000000000000000000000000000000000000000000600052602160045260246000fd5b8160060160009054906101000a900460ff166003811115610871577f4e487b7100000000000000000000000000000000000000000000000000000000600052602160045260246000fd5b146108b1576040517f08c379a00000000000000000000000000000000000000000000000000000000081526004016108a890611a80565b60405180910390fd5b60018160060160006101000a81548160ff021916908360038111156108ff577f4e487b7100000000000000000000000000000000000000000000000000000000600052602160045260246000fd5b0217905550817ff224101ad9200623928d9e682ba2635e7cc131c0927bce7b9c0ae8a8cb21879333604051610934919061184d565b60405180910390a25050565b60006001600083815260200190815260200160002090503373ffffffffffffffffffffffffffffffffffffffff168160000160009054906101000a900473ffffffffffffffffffffffffffffffffffffffff1673ffffffffffffffffffffffffffffffffffffffff16146109e9576040517f08c379a00000000000000000000000000000000000000000000000000000000081526004016109e090611ae0565b60405180910390fd5b60026003811115610a23577f4e487b7100000000000000000000000000000000000000000000000000000000600052602160045260246000fd5b8160060160009054906101000a900460ff166003811115610a6d577f4e487b7100000000000000000000000000000000000000000000000000000000600052602160045260246000fd5b14610aad576040517f08c379a0000000000000000000000000000000000000000000000000000000008152600401610aa490611aa0565b60405180910390fd5b8060050154600260008360010160009054906101000a900473ffffffffffffffffffffffffffffffffffffffff1673ffffffffffffffffffffffffffffffffffffffff1673ffffffffffffffffffffffffffffffffffffffff1681526020019081526020016000206000828254610b249190611b4c565b92505081905550817fd51bb0381ff8d9476c9493a30eafdb1966dca4b0c0db1a2d4e244a3a8b16ffb8338360010160009054906101000a900473ffffffffffffffffffffffffffffffffffffffff168460050154604051610b8793929190611891565b60405180910390a25050565b60035481565b60016020528060005260406000206000915090508060000160009054906101000a900473ffffffffffffffffffffffffffffffffffffffff16908060010160009054906101000a900473ffffffffffffffffffffffffffffffffffffffff16908060020154908060030154908060040160009054906101000a900460ff16908060050154908060060160009054906101000a900460ff16905087565b60006001600085815260200190815260200160002090503373ffffffffffffffffffffffffffffffffffffffff168160010160009054906101000a900473ffffffffffffffffffffffffffffffffffffffff1673ffffffffffffffffffffffffffffffffffffffff1614610cde576040517f08c379a0000000000000000000000000000000000000000000000000000000008152600401610cd590611a00565b60405180910390fd5b60006003811115610d18577f4e487b7100000000000000000000000000000000000000000000000000000000600052602160045260246000fd5b8160060160009054906101000a900460ff166003811115610d62577f4e487b7100000000000000000000000000000000000000000000000000000000600052602160045260246000fd5b14610da2576040517f08c379a0000000000000000000000000000000000000000000000000000000008152600401610d9990611a80565b60405180910390fd5b60038160060160006101000a81548160ff02191690836003811115610df0577f4e487b7100000000000000000000000000000000000000000000000000000000600052602160045260246000fd5b02179055508060000160009054906101000a900473ffffffffffffffffffffffffffffffffffffffff1673ffffffffffffffffffffffffffffffffffffffff166108fc82600501549081150290604051600060405180830381858888f19350505050158015610e63573d6000803e3d6000fd5b50837f70080ddd949156c177465f4dd16e0620cfbd8ffb45681b4df919c3b20708eb65338585604051610e9893929190611937565b60405180910390a250505050565b60008111610ee9576040517f08c379a0000000000000000000000000000000000000000000000000000000008152600401610ee0906119c0565b60405180910390fd5b60405180606001604052803373ffffffffffffffffffffffffffffffffffffffff168152602001828152602001600115158152506000803373ffffffffffffffffffffffffffffffffffffffff1673ffffffffffffffffffffffffffffffffffffffff16815260200190815260200160002060008201518160000160006101000a81548173ffffffffffffffffffffffffffffffffffffffff021916908373ffffffffffffffffffffffffffffffffffffffff1602179055506020820151816001015560408201518160020160006101000a81548160ff0219169083151502179055509050503373ffffffffffffffffffffffffffffffffffffffff167f90c9734131c1e4fb36cde2d71e6feb93fb258f71be8a85411c173d25e1516e80826040516110159190611b20565b60405180910390a250565b60006001600083815260200190815260200160002090503373ffffffffffffffffffffffffffffffffffffffff168160010160009054906101000a900473ffffffffffffffffffffffffffffffffffffffff1673ffffffffffffffffffffffffffffffffffffffff16146110c9576040517f08c379a00000000000000000000000000000000000000000000000000000000081526004016110c0906119e0565b60405180910390fd5b60016003811115611103577f4e487b7100000000000000000000000000000000000000000000000000000000600052602160045260246000fd5b8160060160009054906101000a900460ff16600381111561114d577f4e487b7100000000000000000000000000000000000000000000000000000000600052602160045260246000fd5b1461118d576040517f08c379a000000000000000000000000000000000000000000000000000000000815260040161118490611a60565b60405180910390fd5b80600301544210156111d4576040517f08c379a00000000000000000000000000000000000000000000000000000000081526004016111cb90611b00565b60405180910390fd5b60018160040160006101000a81548160ff02191690831515021790555060028160060160006101000a81548160ff0219169083600381111561123f577f4e487b7100000000000000000000000000000000000000000000000000000000600052602160045260246000fd5b0217905550817f71df29d45998a549c1f24c01fb77e4eb23d0655460af8d435c59de2d8f572d968260000160009054906101000a900473ffffffffffffffffffffffffffffffffffffffff163360405161129a929190611868565b60405180910390a25050565b6000813590506112b581611d44565b92915050565b60008083601f8401126112cd57600080fd5b8235905067ffffffffffffffff8111156112e657600080fd5b6020830191508360018202830111156112fe57600080fd5b9250929050565b60008135905061131481611d5b565b92915050565b60006020828403121561132c57600080fd5b600061133a848285016112a6565b91505092915050565b6000806040838503121561135657600080fd5b6000611364858286016112a6565b925050602061137585828601611305565b9150509250929050565b60006020828403121561139157600080fd5b600061139f84828501611305565b91505092915050565b6000806000604084860312156113bd57600080fd5b60006113cb86828701611305565b935050602084013567ffffffffffffffff8111156113e857600080fd5b6113f4868287016112bb565b92509250509250925092565b61140981611bfc565b82525050565b61141881611c0e565b82525050565b61142781611c57565b82525050565b60006114398385611b3b565b9350611446838584611c69565b61144f83611d1f565b840190509392505050565b6000611467602683611b3b565b91507f4f6e6c792070726f76696465722063616e20616363657074207468652061677260008301527f65656d656e7400000000000000000000000000000000000000000000000000006020830152604082019050919050565b60006114cd601f83611b3b565b91507f5072696365206d7573742062652067726561746572207468616e207a65726f006000830152602082019050919050565b600061150d602383611b3b565b91507f4f6e6c792070726f76696465722063616e20636f6d706c65746520746865207460008301527f61736b00000000000000000000000000000000000000000000000000000000006020830152604082019050919050565b6000611573602683611b3b565b91507f4f6e6c792070726f76696465722063616e2072656a656374207468652061677260008301527f65656d656e7400000000000000000000000000000000000000000000000000006020830152604082019050919050565b60006115d9601a83611b3b565b91507f50726f7669646572206973206e6f7420726567697374657265640000000000006000830152602082019050919050565b6000611619601483611b3b565b91507f4e6f2066756e647320746f2077697468647261770000000000000000000000006000830152602082019050919050565b6000611659601783611b3b565b91507f41677265656d656e74206973206e6f74206163746976650000000000000000006000830152602082019050919050565b6000611699601883611b3b565b91507f41677265656d656e74206973206e6f742070656e64696e6700000000000000006000830152602082019050919050565b60006116d9602283611b3b565b91507f5461736b206e6f742079657420636f6d706c657465642062792070726f76696460008301527f65720000000000000000000000000000000000000000000000000000000000006020830152604082019050919050565b600061173f602c83611b3b565b91507f496e73756666696369656e74207061796d656e7420666f72207468652072656e60008301527f74616c206475726174696f6e00000000000000000000000000000000000000006020830152604082019050919050565b60006117a5602283611b3b565b91507f4f6e6c792072656e7465722063616e20636f6e6669726d20636f6d706c65746960008301527f6f6e0000000000000000000000000000000000000000000000000000000000006020830152604082019050919050565b600061180b601f83611b3b565b91507f52656e74616c20706572696f6420686173206e6f7420656e64656420796574006000830152602082019050919050565b61184781611c4d565b82525050565b60006020820190506118626000830184611400565b92915050565b600060408201905061187d6000830185611400565b61188a6020830184611400565b9392505050565b60006060820190506118a66000830186611400565b6118b36020830185611400565b6118c0604083018461183e565b949350505050565b600060e0820190506118dd600083018a611400565b6118ea6020830189611400565b6118f7604083018861183e565b611904606083018761183e565b611911608083018661140f565b61191e60a083018561183e565b61192b60c083018461141e565b98975050505050505050565b600060408201905061194c6000830186611400565b818103602083015261195f81848661142d565b9050949350505050565b600060608201905061197e6000830186611400565b61198b602083018561183e565b611998604083018461140f565b949350505050565b600060208201905081810360008301526119b98161145a565b9050919050565b600060208201905081810360008301526119d9816114c0565b9050919050565b600060208201905081810360008301526119f981611500565b9050919050565b60006020820190508181036000830152611a1981611566565b9050919050565b60006020820190508181036000830152611a39816115cc565b9050919050565b60006020820190508181036000830152611a598161160c565b9050919050565b60006020820190508181036000830152611a798161164c565b9050919050565b60006020820190508181036000830152611a998161168c565b9050919050565b60006020820190508181036000830152611ab9816116cc565b9050919050565b60006020820190508181036000830152611ad981611732565b9050919050565b60006020820190508181036000830152611af981611798565b9050919050565b60006020820190508181036000830152611b19816117fe565b9050919050565b6000602082019050611b35600083018461183e565b92915050565b600082825260208201905092915050565b6000611b5782611c4d565b9150611b6283611c4d565b9250827fffffffffffffffffffffffffffffffffffffffffffffffffffffffffffffffff03821115611b9757611b96611cc1565b5b828201905092915050565b6000611bad82611c4d565b9150611bb883611c4d565b9250817fffffffffffffffffffffffffffffffffffffffffffffffffffffffffffffffff0483118215151615611bf157611bf0611cc1565b5b828202905092915050565b6000611c0782611c2d565b9050919050565b60008115159050919050565b6000819050611c2882611d30565b919050565b600073ffffffffffffffffffffffffffffffffffffffff82169050919050565b6000819050919050565b6000611c6282611c1a565b9050919050565b82818337600083830152505050565b6000611c8382611c4d565b91507fffffffffffffffffffffffffffffffffffffffffffffffffffffffffffffffff821415611cb657611cb5611cc1565b5b600182019050919050565b7f4e487b7100000000000000000000000000000000000000000000000000000000600052601160045260246000fd5b7f4e487b7100000000000000000000000000000000000000000000000000000000600052602160045260246000fd5b6000601f19601f8301169050919050565b60048110611d4157611d40611cf0565b5b50565b611d4d81611bfc565b8114611d5857600080fd5b50565b611d6481611c4d565b8114611d6f57600080fd5b5056fea2646970667358221220d67cc3806aec393abf559e6b5dbcb87d14a23567e0c6531c2caf4f21717e73d764736f6c63430008000033",
  "immutableReferences": {},
  "source": "// SPDX-License-Identifier: MIT\r\npragma solidity ^0.8.0;\r\n\r\ncontract DecentralizedResourceSharing {\r\n    \r\n    struct Provider {\r\n        address providerAddress;\r\n        uint256 pricePerMonth;\r\n        bool isRegistered;\r\n    }\r\n\r\n    enum AgreementStatus { Pending, Active, Completed, Rejected }\r\n\r\n    struct RentalAgreement {\r\n        address renter;\r\n        address provider;\r\n        uint256 startTime;\r\n        uint256 endTime;\r\n        bool isCompleted;\r\n        uint256 amount;\r\n        AgreementStatus status;\r\n    }\r\n\r\n    mapping(address => Provider) public providers;\r\n    mapping(uint256 => RentalAgreement) public agreements;\r\n    mapping(address => uint256) public balances;\r\n\r\n    uint256 public agreementCount;\r\n\r\n    event ProviderRegistered(address indexed provider, uint256 pricePerMonth);\r\n    event AgreementCreated(uint256 indexed agreementId, address renter, address provider, uint256 amount);\r\n    event AgreementAccepted(uint256 indexed agreementId, address provider);\r\n    event AgreementRejected(uint256 indexed agreementId, address provider, string reason);\r\n    event TaskCompleted(uint256 indexed agreementId, address renter, address provider);\r\n    event PaymentMade(uint256 indexed agreementId, address renter, address provider, uint256 amount);\r\n\r\n    function registerProvider(uint256 _pricePerMonth) external {\r\n        require(_pricePerMonth > 0, \"Price must be greater than zero\");\r\n\r\n        providers[msg.sender] = Provider({\r\n            providerAddress: msg.sender,\r\n            pricePerMonth: _pricePerMonth,\r\n            isRegistered: true\r\n        });\r\n\r\n        emit ProviderRegistered(msg.sender, _pricePerMonth);\r\n    }\r\n\r\n    function createAgreement(address _provider, uint256 _durationMonths) external payable {\r\n        Provider storage provider = providers[_provider];\r\n        require(provider.isRegistered, \"Provider is not registered\");\r\n\r\n        uint256 totalAmount = provider.pricePerMonth * _durationMonths;\r\n        require(msg.value >= totalAmount, \"Insufficient payment for the rental duration\");\r\n\r\n        agreementCount++;\r\n        agreements[agreementCount] = RentalAgreement({\r\n            renter: msg.sender,\r\n            provider: _provider,\r\n            startTime: block.timestamp,\r\n            endTime: block.timestamp + (_durationMonths * 30 days),\r\n            isCompleted: false,\r\n            amount: msg.value,\r\n            status: AgreementStatus.Pending\r\n        });\r\n\r\n        emit AgreementCreated(agreementCount, msg.sender, _provider, msg.value);\r\n    }\r\n\r\n    function acceptAgreement(uint256 _agreementId) external {\r\n        RentalAgreement storage agreement = agreements[_agreementId];\r\n        require(agreement.provider == msg.sender, \"Only provider can accept the agreement\");\r\n        require(agreement.status == AgreementStatus.Pending, \"Agreement is not pending\");\r\n\r\n        agreement.status = AgreementStatus.Active;\r\n\r\n        emit AgreementAccepted(_agreementId, msg.sender);\r\n    }\r\n\r\n    function rejectAgreement(uint256 _agreementId, string calldata reason) external {\r\n        RentalAgreement storage agreement = agreements[_agreementId];\r\n        require(agreement.provider == msg.sender, \"Only provider can reject the agreement\");\r\n        require(agreement.status == AgreementStatus.Pending, \"Agreement is not pending\");\r\n\r\n        agreement.status = AgreementStatus.Rejected;\r\n\r\n        // Refund the renter\r\n        payable(agreement.renter).transfer(agreement.amount);\r\n\r\n        emit AgreementRejected(_agreementId, msg.sender, reason); // Event notifies renter of rejection and reason\r\n    }\r\n\r\n    function completeTask(uint256 _agreementId) external {\r\n        RentalAgreement storage agreement = agreements[_agreementId];\r\n\r\n        require(agreement.provider == msg.sender, \"Only provider can complete the task\");\r\n        require(agreement.status == AgreementStatus.Active, \"Agreement is not active\");\r\n        require(block.timestamp >= agreement.endTime, \"Rental period has not ended yet\");\r\n\r\n        agreement.isCompleted = true;\r\n        agreement.status = AgreementStatus.Completed;\r\n\r\n        emit TaskCompleted(_agreementId, agreement.renter, msg.sender);\r\n    }\r\n\r\n    function confirmCompletion(uint256 _agreementId) external {\r\n        RentalAgreement storage agreement = agreements[_agreementId];\r\n        require(agreement.renter == msg.sender, \"Only renter can confirm completion\");\r\n        require(agreement.status == AgreementStatus.Completed, \"Task not yet completed by provider\");\r\n\r\n        // Transfer payment to provider\r\n        balances[agreement.provider] += agreement.amount;\r\n        emit PaymentMade(_agreementId, msg.sender, agreement.provider, agreement.amount);\r\n    }\r\n\r\n    function withdrawFunds() external {\r\n        uint256 amount = balances[msg.sender];\r\n        require(amount > 0, \"No funds to withdraw\");\r\n\r\n        balances[msg.sender] = 0;\r\n        payable(msg.sender).transfer(amount);\r\n    }\r\n}\r\n",
  "sourcePath": "D:\\Files\\AITY-Blockchain_Technologies-Final_Project\\server\\contracts\\DecentralizedResourceSharing.sol",
  "compiler": {
    "name": "solc",
    "version": "0.8.0+commit.c7dfd78e.Emscripten.clang"
  },
  "schemaVersion": "3.4.16",
  "updatedAt": "2024-11-07T18:11:17.305Z",
  "networkType": "ethereum",
  "devdoc": {
    "kind": "dev",
    "methods": {},
    "version": 1
  },
  "userdoc": {
    "kind": "user",
    "methods": {},
    "version": 1
  }
}